:0400000065EF00F0B8
:10000800FACF06F0FBCF07F0E9CF08F0EACF09F006
:10001800E1CF0AF0E2CF0BF0D9CF0CF0DACF0DF038
:10002800F3CF0EF0F4CF0FF0F6CF10F0F7CF11F0BA
:10003800F8CF12F0F5CF13F09EB09E90F2A41ED028
:10004800F294000E156E000E146EF70E1424166E40
:10005800C20E1520176E8BEC0EF000010001942BD8
:1000680089B602D0010E01D0000E056E0546054680
:10007800054689500518F70B0518896E13C0F5FF5A
:1000880012C0F8FF11C0F7FF10C0F6FF0FC0F4FF51
:100098000EC0F3FF0DC0DAFF0CC0D9FF0BC0E2FFA2
:1000A8000AC0E1FF09C0EAFF08C0E9FF07C0FBFF7B
:1000B80006C0FAFF1100FACF1BF0FBCF1CF0AAED27
:1000C8000CF03FEF0EF0000ED16E936894680001BB
:1000D800876F000E00010001976F00018751000132
:1000E800876F000E00010001956F00018751000124
:1000F800876F000E00010001936F00018751000116
:10010800876F000E00010001966F00018751F1947E
:10011800960E56EC0EF0C20E00010001616FF70E4C
:100128000001606F82EC0EF00001876F020E000183
:100138000001736F000187510001886F020E0001F2
:100148000001746F000188510001896F030E0001DE
:100158000001756F0001895100018A6F020E0001CC
:100168000001766F00018A5100018B6FDF0E0001DC
:100178000001776F00018B51010E44EC09F0000E6D
:100188006BEC0EF0000E896E000E806E92683D0ECC
:10019800C16EAB0EC06EC280F28E0001876F010E79
:1001A80000010001AF6F000187510001876F020E47
:1001B80000010001B06F000187510001876F030E35
:1001C80000010001B16F000187510001876F040E23
:1001D80000010001B26F000187510400C294C29669
:1001E800C298C29A020E77EC0EF0C282C2B2FED753
:1001F800C3CF8FF0C4CF90F00400020E77EC0EF05E
:10020800C284020E77EC0EF0C282C2B2FED7C3CF10
:1002180091F0C4CF92F000010001982B0001000179
:100228009851800A1C0FD8A008D00001876F000ED3
:1002380000010001986F0001875100018FC087F00D
:10024800000190C088F00001871F881F874B882B0A
:10025800000100019151000187270001000192511E
:1002680000018823000100019851020D0101000ED0
:10027800F324D96E0101010EF420DA6E87C0DEFF87
:1002880088C0DDFF000100019451D8B4FAD0000104
:10029800876F000E00010001946F00018751000E66
:1002A80000010001B76F000E0001B86F000E0001D9
:1002B800B96F000E0001BA6F0001876F000E0001D0
:1002C80000018C6F00018751000100018C51800AE8
:1002D8001C0FD8B02CD00001000E000100017E6F69
:1002E8000001B70E000100017D6F000100018C5173
:1002F800020D0101000EF324D96E0101010EF42054
:10030800DA6E0001DECF6AF00001DDCF6BF002EC9F
:100318000DF06AC07FF06BC080F06CC081F06DC0DA
:1003280082F0E1EC0DF0000100018C2BCDD700012B
:10033800000E000100017E6F0001B70E00010001F0
:100348007D6FB10E000100017F6FE40E0001806F28
:10035800970E0001816F3B0E0001826FB0EC0DF02B
:10036800B7C060F0B8C061F0B9C062F0BAC063F05D
:1003780006EC0BF060C087F061C088F062C089F0BD
:1003880063C08AF087C08DF088C08EF08EC0ABF055
:100398008DC0ACF00001000E000100017E6F00016D
:1003A800B30E000100017D6F000E000100016E6FA9
:1003B800000E00016F6F610E0001706F450E0001A5
:1003C800716FB7C06AF0B8C06BF0B9C06CF0BAC052
:1003D8006DF05AEC08F06AC07FF06BC080F06CC01A
:1003E80081F06DC082F0E1EC0DF0B3C060F0B4C0F4
:1003F80061F0B5C062F0B6C063F006EC0BF060C007
:1004080087F061C088F062C089F063C08AF087C055
:100418008DF088C08EF08EC0ADF08DC0AEF0F20EBB
:1004280000010001A66F000E0001A76F000E000179
:10043800A86F010E0001A96FA6C06BF0A7C06CF0F1
:10044800A8C06DF0A9C06EF00001000E0001000107
:10045800706F0001AB0E000100016F6F0001876F24
:10046800080E00010001716F000187510001886FBB
:10047800F40E00010001726F00018851B5EC0BF019
:10048800040060BE03D00F0150AFA7D60001000ED4
:10049800000100016A6F0001990E00010001696FF7
:1004A8000001000E000100016C6F00019E0E0001AA
:1004B80000016B6F0001000E000100016E6F00016A
:1004C8009D0E000100016D6F0001000E000100018A
:1004D800706F0001BB0E000100016F6F64EC05F046
:1004E80000010001BBB979D6000100019C51020A44
:1004F800F20ED8B499199A119B11D8A46ED600019E
:1005080000019E5142EC0DF06AC0B3F06BC0B4F02C
:100518006CC0B5F06DC0B6F060D600016AC072F06C
:1005280000016BC073F000016CC074F000016DC075
:1005380075F0180E06D00001D890753374337333F4
:100548007233E82EF8D70001725100010001786F6C
:1005580000016EC072F000016FC073F0000170C03E
:1005680074F0000171C075F0180E06D00001D89023
:100578007533743373337233E82EF8D70001725130
:1005880000010001776F000100017851D8B416D03E
:1005980000010001775100010001785DD8B017D043
:1005A80000010001785100080001000177250001D1
:1005B800726F210E0001725DD8A009D06EC06AF07A
:1005C8006FC06BF070C06CF071C06DF06BD1000142
:1005D80000017751D8B416D000010001785100010C
:1005E8000001775DD8B017D00001000177510008ED
:1005F8000001000178250001726F210E0001725D73
:10060800D8A009D06AC06AF06BC06BF06CC06CF0FF
:100618006DC06DF047D10001726F060E0001000138
:10062800766F00017251000100016DAF03D0000127
:100638000001768F0001000171AF03D000010001B5
:10064800768D000100016C8FFF0E000100016A1712
:10065800FF0E00016B17FF0E00016C17000E000162
:100668006D1700010001708FFF0E000100016E1769
:10067800FF0E00016F17FF0E00017017000E00013A
:10068800711700010001775100010001785DD8B0B1
:1006980035D00001D89000016E3700016F37000196
:1006A8007037000171370001000177070001000170
:1006B8007751000100017819D8B418D00001000161
:1006C800760776C072F0070E00017217D8B40ED004
:1006D800E0D70001D89000016D3300016C330001B0
:1006E8006B3300016A3300010001782B000100011F
:1006F8007751000100017863ECD73CD0000100017C
:10070800785100010001775DD8B034D00001D8904D
:1007180000016A3700016B3700016C3700016D3743
:100728000001000178070001000177510001000174
:100738007819D8B418D000010001760776C072F095
:10074800070E00017217D8B40ED0E0D70001D89078
:10075800000171330001703300016F3300016E3303
:1007680000010001772B0001000177510001000111
:100778007863ECD70001000176AF1AD0FF0E0001B4
:1007880000016A1BFF0E00016B1BFF0E00016C1BB2
:10079800FF0E00016D1B010E000100016A27000E0B
:1007A80000016B23000E00016C23000E00016D2375
:1007B8000001000176AD1AD0FF0E000100016E1B8A
:1007C800FF0E00016F1BFF0E0001701BFF0E0001E2
:1007D800711B010E000100016E27000E00016F233E
:1007E800000E00017023000E000171230001726FDA
:1007F800000E00010001766F000172510001000136
:100808006A51000100016E27000100016B510001CF
:1008180000016F23000100016C51000100017023E9
:10082800000100016D510001000171230001000168
:1008380071AF22D0FF0E000100016E1BFF0E0001F8
:100848006F1BFF0E0001701BFF0E0001711B010ED4
:10085800000100016E27000E00016F23000E000149
:100868007023000E000171230001726F010E000158
:100878000001766F000172516EC060F06FC061F0C8
:1008880070C062F071C063F078C064F076C065F043
:100898002DEC0AF060C06AF061C06BF062C06CF0C9
:1008A80063C06DF0120000016AC072F000016BC0F5
:1008B80073F000016CC074F000016DC075F0180E83
:1008C80006D00001D8907533743373337233E82E31
:1008D800F8D70001725100010001766F00017667B8
:1008E80001D01ED000016EC072F000016FC073F01D
:1008F800000170C074F0000171C075F0180E06D0C8
:100908000001D8907533743373337233E82EF8D7F7
:1009180000017251000100017C6F00017C670ED05C
:10092800000E000100016A6F000E00016B6F000EDF
:1009380000016C6F000E00016D6FC1D00001000155
:100948007C517B0F0001000176276DC07CF000010F
:1009580000017151000100017C1B800E00010001A3
:100968007C17000100016C8F00010001708FFF0EE1
:10097800000100016E17FF0E00016F17FF0E000146
:100988007017000E00017117000E00010001776F4B
:10099800000E0001786F000E0001796F000E000153
:1009A8007A6F0001726F070E000100017B6F000172
:1009B8007251000100016AA118D0000100016E51B6
:1009C800000100017727000100016F5100010001BB
:1009D8007823000100017051000100017923000112
:1009E80000017151000100017A230001D890000133
:1009F8006D3300016C3300016B3300016A33000171
:100A0800D89000016E3700016F3700017037000180
:100A18007137000100017B2FCCD70001726F110ED6
:100A2800000100017B6F00017251000100016AA101
:100A380018D0000100016E51000100017727000164
:100A480000016F510001000178230001000170517D
:100A5800000100017923000100017151000100012A
:100A68007A230001D89000016D3300016C33000136
:100A78006B3300016A330001D89000017A3300011A
:100A880079330001783300017733000100017B2FAF
:100A9800CCD777C060F078C061F079C062F07AC0D6
:100AA80063F076C064F07CC065F02DEC0AF060C09D
:100AB8006AF061C06BF062C06CF063C06DF0120048
:100AC8006FC0D9FF70C0DAFF000EDF6E60AE29D0AC
:100AD800F10E6F160001716F010E00010001746FB5
:100AE80000017151A49074AE07D06FC0D9FF70C0D7
:100AF800DAFF000EDB86749E60A44AD060CF71F0E6
:100B0800070E000171176FC0D9FF70C0DAFF00012E
:100B18007151DF126FC0D9FF70C0DAFF010EDF1606
:100B280037D00F0150AFD1D0F10E6F160A0E6F12E9
:100B38000001716F000E00010001746F0001715116
:100B4800A49274AC07D06FC0D9FF70C0DAFF000E52
:100B5800DB86749C50CF71F0070E000171176FC0CF
:100B6800D9FF70C0DAFF00017151DF126FC0D9FFE1
:100B780070C0DAFFDF500001716F020E0001715D75
:100B8800D8B006D06FC0D9FF70C0DAFF000EDB8E78
:100B980065500F0B6DC0D9FF6EC0DAFFDF6E65AC14
:100BA80006D06FC0D9FF70C0DAFF000EDB8C62A6DA
:100BB80021D06FC0D9FF70C0DAFF000EDB8A0F0E9C
:100BC80000010001616F610E00010001606F00010A
:100BD80000016AC063F00001000169C062F0000111
:100BE800716FF70E00010001646F000171516AEC2A
:100BF80006F01AD00F0E00010001616F610E0001AE
:100C08000001606F000100016AC063F0000100018B
:100C180069C062F00001716FFF0E00010001646F8E
:100C2800000171516AEC06F00F0E00010001736FAC
:100C3800660E00010001726F0001716F000E000165
:100C48000001756F0001715121D00001000175513B
:100C5800010DF350000100017225D96EF450000116
:100C680000017321DA6E000100017551010DF35086
:100C7800000100016B25E16EF450000100016C21B8
:100C8800E26EDFCFE7FF00010001752B6DC0D9FFD1
:100C98006EC0DAFFDF5000010001755DD8A0D5D71E
:100CA800F10E6F16A4AE07D06FC0D9FF70C0DAFF7F
:100CB800000EDB88A49E000100017451D8B402D054
:100CC800609E03D00F010F01509F12000001000128
:100CD80063C068F00001000162C067F00001000114
:100CE80064A763D060C0D9FF61C0DAFFDF5000019C
:100CF800656F0001D89065370001D890653700010D
:100D0800D890653567C0D9FF68C0DAFFDF6E00018B
:100D180020EE01F000016751D92600016851DA225E
:100D280060C0E1FF61C0E2FFE7500001656F050E9A
:100D38000001666F0001D89065330001662FFAD76D
:100D480000016551DF6E00010001604B612B60C03E
:100D5800D9FF61C0DAFFDF500001656F050E0001A1
:100D6800666F0001D89065330001662FFAD767C017
:100D7800D9FF68C0DAFF00016551DF12000120EEDB
:100D880002F000016751D92600016851DA22000EED
:100D9800DF6E000120EE03F000016751D926000143
:100DA8006851DA22000EDF6E90D0000120EE02F0CA
:100DB80000016751D92600016851DA2260C0E1FFBD
:100DC80061C0E2FFE7500001656F050E0001666F24
:100DD8000001D89065370001662FFAD700016551E8
:100DE800DF6E000120EE03F000016751D9260001F3
:100DF8006851DA2260C0E1FF61C0E2FFE7500001FC
:100E0800656F0001D89065330001D8906533000103
:100E1800D8906531DF6E00010001604B612B60C026
:100E2800D9FF61C0DAFFDF500001656F030E0001D2
:100E38006517000120EE02F000016751D926000174
:100E48006851DA2200016551DF1260C0D9FF61C024
:100E5800DAFFDF500001656F0001D89065330001AB
:100E6800D89065330001D89065331C0E00016517D2
:100E7800000120EE02F000016751D92600016851F7
:100E8800DA2200016551DF1200010001604B612B7D
:100E980060C0D9FF61C0DAFF000110EE01F0000167
:100EA8006751E12600016851E222DFCFE7FF000128
:100EB8000001604B612B60C0D9FF61C0DAFF67C0D9
:100EC800E1FF68C0E2FFDFCFE7FF12000001000E7C
:100ED800000100016A6F0001620E00010001696FE4
:100EE8000001000166A74DD069C0D9FF6AC0DAFFCA
:100EF800DF500001676F0001D89067330001D89078
:100F080067330001D890673160C0D9FF61C0DAFF4C
:100F1800DF6E000120EE01F000016951D9260001C1
:100F28006A51DA22DF500001676F050E0001686F11
:100F38000001D89067370001682FFAD760C0D9FF41
:100F480061C0DAFF00016751DF1200010001604B48
:100F5800612B69C0D9FF6AC0DAFFDF500001676FF3
:100F6800050E0001686F0001D89067370001682FEF
:100F7800FAD70001675160C0D9FF61C0DAFFDF6EA0
:100F880094D0000120EE02F000016951D926000139
:100F98006A51DA22DF500001676F050E0001686FA1
:100FA8000001D89067330001682FFAD70001675114
:100FB80060C0D9FF61C0DAFFDF6E000120EE03F0E8
:100FC80000016951D92600016A51DA22DF50000177
:100FD800676F0001D89067370001D8906737000124
:100FE800D890673760C0D9FF61C0DAFF0001675148
:100FF800DF1200010001604B612B000120EE02F0BE
:1010080000016951D92600016A51DA22DF50000136
:10101800676F0001D89067370001D89067370001E3
:10102800D8906735E00B60C0D9FF61C0DAFFDF6E8A
:1010380060C0D9FF61C0DAFF000EDB86000120EE38
:1010480002F000016951D92600016A51DA22DF5005
:101058000001676F030E0001671760C0D9FF61C008
:10106800DAFF00016751DF1200010001604B612BBC
:10107800000120EE01F000016951D92600016A51F2
:10108800DA2260C0E1FF61C0E2FFDFCFE7FF0001C5
:101098000001604B612B69C0D9FF6AC0DAFF60C0EC
:1010A800E1FF61C0E2FFDFCFE7FF120000016AC085
:1010B80072F000016BC073F000016CC074F00001A5
:1010C8006DC075F0180E06D00001D89075337433D2
:1010D80073337233E82EF8D7000172510001000112
:1010E8007B6F00017B6701D01ED000016EC072F0DB
:1010F80000016FC073F0000170C074F0000171C08E
:1011080075F0180E06D00001D89075337433733318
:101118007233E82EF8D700017251000100017C6F8C
:1011280000017C670ED0000E000100016A6F000EFE
:1011380000016B6F000E00016C6F000E00016D6FF7
:101148009ED0000100017C51890F000100017B5FE6
:101158006DC07CF0000100017151000100017C1B91
:10116800800E000100017C17000100016C8FFF0E4A
:10117800000100016A17FF0E00016B17FF0E000146
:101188006C17000E00016D1700010001708FFF0E33
:10119800000100016E17FF0E00016F17FF0E00011E
:1011A8007017000E000171170001726F200E000108
:1011B80000017A6F000172510001D8900001763762
:1011C8000001773700017837000179370001000105
:1011D8006E51000100016A5D000100016F510001BC
:1011E80000016B59000100017051000100016C59A8
:1011F800000100017151000100016D59D8A01BD0F8
:10120800000100016E51000100016A5F0001000148
:101218006F51000100016B5B00010001705100017A
:1012280000016C5B000100017151000100016D5B60
:101238000001000176810001D89000016A370001A1
:101248006B3700016C3700016D37000100017A2F00
:10125800B3D776C060F077C061F078C062F079C02B
:1012680063F07BC064F07CC065F02DEC0AF060C0D0
:101278006AF061C06BF062C06CF063C06DF0120080
:10128800E8CF7CF0000E000100017F6F000E000126
:10129800806F000E0001816F000E0001826F800ECA
:1012A8006BEC0EF0738A73C060F074C061F075C0A7
:1012B80062F076C063F077C064F0000100017C51F1
:1012C8007CEC0DF0000100017751600B606E77C077
:1012D80078F0100E000178177850FF0AD8B46084AF
:1012E80060CF50FF7FC06BF080C06CF081C06DF0A4
:1012F80082C06EF00001786FF70E000100016F6F79
:1013080000017851000E12EC0EF07FC06BF080C027
:101318006CF081C06DF082C06EF00001786FF70E3E
:10132800000100016F6F00017851010E12EC0EF000
:101338001CD00001786FF70E000100017D6F0001DD
:1013480078510AD0000100017D69000100017E6921
:101358002ED0000100017D690001786FF70E0001B1
:1013680000017E6F0001785122D09F0E0001786F36
:10137800FF0E796F000100017751600B00017A6F51
:101388007B6B0001785100017A130001795100014B
:101398007B1300017B51000AD8A4DBD700017A51E6
:1013A800BF0AD8B4CFD7600AD8B4C3D7D2D77FC0C2
:1013B8006BF080C06CF081C06DF082C06EF07DC0B3
:1013C8006FF0000E4CEC0CF07FC06BF080C06CF03E
:1013D80081C06DF082C06EF07DC06FF0010E4CECE4
:1013E8000CF07FC06BF080C06CF081C06DF082C0E3
:1013F8006EF07EC06FF0020E4CEC0CF07FC06BF00C
:1014080080C06CF081C06DF082C06EF07EC06FF05D
:10141800030E4CEC0CF07FC06BF080C06CF081C008
:101428006DF082C06EF07EC06FF0040E4CEC0CF0D4
:101438007FC06BF080C06CF081C06DF082C06EF030
:101448007EC06FF0050E4CEC0CF0000E6BEC0EF04D
:101458001200000100016451D8B408D00001000155
:101468006351601161116211D8A41BD0000E0001F4
:101478000001606F000E0001616F000E0001626FD5
:10148800000E0001636FBDD000010001642B000154
:10149800D890000163330001623300016133000119
:1014A8006033000E0001000160150001666F000E38
:1014B8000001000161150001676F000E00010001C5
:1014C80062150001686FFE0E00010001631500013E
:1014D800696F00016951661167116811D8B41BD092
:1014E800D3D700010001642B010E00010001602721
:1014F800000E00016123000E00016223000E0001AE
:1015080063230001D89000016333000162330001B6
:10151800613300016033000E000100016015000115
:10152800666F000E0001000161150001676F000E73
:101538000001000162150001686FFF0E0001000143
:1015480063150001696F000169516611671168111F
:10155800D8B40ED0C6D70001000164070001D890A6
:10156800000160370001613700016237000163370D
:101578000001000162AFEFD70001000164B10DD096
:10158800FF0E000100016017FF0E000161177F0EBA
:1015980000016217FF0E000163170001D890643341
:1015A800000164C066F00001676B686B696B66C018
:1015B80069F00001686B676B666B0001665100019A
:1015C800000160130001675100010001611300016F
:1015D8006851000100016213000169510001000116
:1015E8006313000100016551D8B403D00001000164
:1015F800638F60C060F061C061F062C062F063C078
:1016080063F01200000160C064F0000161C065F081
:10161800000162C066F0000163C067F0180E06D0D2
:101628000001D8906733663365336433E82EF8D702
:101638000001645100010001696F0001696701D070
:1016480053D0000160C064F0000161C065F0000182
:1016580062C066F0000163C067F0200E06D000018A
:10166800D8906733663365336433E82EF8D70001C2
:10167800645100010001686F00010001628FFF0ED4
:10168800000100016017FF0E00016117FF0E000145
:101698006217000E00016317960E00010001695FD2
:1016A8000001000169AF1BD0000100016951800AE7
:1016B8000001646FE90E800A0001645DD8A014D0AF
:1016C8000001D890000163330001623300016133E7
:1016D8000001603300010001693FF2D724D01F0EDA
:1016E8000001000169651BD0000E00010001606F58
:1016F800000E0001616F000E0001626F000E000114
:10170800636F2ED00001D890000160370001613767
:101718000001623700016337000100016907000119
:1017280000016967EFD7000100016851D8B410D0F3
:1017380000010001631F0001621F0001611F000119
:10174800606D000E00016123000162230001632324
:1017580060C060F061C061F062C062F063C063F0B5
:1017680012000F0140B704D0F10E6F166F860ED02D
:101778000F0130B705D0F10E6F16060E6F1206D0A6
:101788000F0120B784D0F10E6F166F84000100019D
:101798007251030B606E0001000172B71BD00F0E6F
:1017A80000010001616F610E00010001606F6BC0F4
:1017B80062F06CC063F06DC064F06EC065F000014B
:1017C800736FF70E00010001666F000173516AEC38
:1017D80007F01AD00F0E00010001616F610E0001C1
:1017E8000001606F6BC062F06CC063F06DC064F0A4
:1017F8006EC065F00001736FFF0E00010001666F97
:10180800000173516AEC07F071C065FF0001000127
:1018180072AD658C0F0E00010001756F660E000138
:101828000001746F0001736F000E00010001766FF4
:101838000001735121D0000100017651010DF350D0
:10184800000100016F25D96EF450000100017021DC
:10185800DA6E000100017651010DF350000100011C
:101868007425E16EF450000100017521E26EDFCFAE
:10187800E7FF00010001762B000100017151000112
:101888000001765DD8A0D7D76086F10E6F161200DA
:10189800E8CF70F033D00F010F0E00010001726F16
:1018A8000F01000E27D00F010F0E00010001726F0B
:1018B8000F01040E1FD00F010F0E00010001726FFF
:1018C8000F01080E17D00F010F0E00010001726FF3
:1018D8000F010C0E0FD00F010F0E00010001726FE7
:1018E8000F01100E07D00F010F0E00010001726FDB
:1018F8000F01140E00010001716F13D000010001E7
:101908007051000AD8B4C7D7010AD8B4CCD7030A93
:10191800D8B4D1D7010AD8B4D6D7070AD8B4DBD7F8
:10192800E2D70001000172C061F00001000171C03E
:1019380060F06BC062F06CC063F06DC064F06EC0A4
:1019480065F06FC066F06AEC07F012000600E9CF98
:101958001DF0EACF1EF0E1CF1FF0E2CF20F0D9CF83
:1019680021F0DACF22F0F3CF23F0F4CF24F0F6CF32
:1019780025F0F7CF26F0F8CF27F0F5CF28F0F2A41E
:1019880020D0F29494EC0EF016C029F017C02AF07B
:10199800E50E2924166E480E2A20176E8BEC0EF0E1
:1019A80000010001942B89B602D0010E01D0000E6F
:1019B8001A6E1A461A461A4689501A18F70B1A1838
:1019C800896E28C0F5FF27C0F8FF26C0F7FF25C09D
:1019D800F6FF24C0F4FF23C0F3FF22C0DAFF21C0C2
:1019E800D9FF20C0E2FF1FC0E1FF1EC0EAFF1DC0F3
:1019F800E9FF1CC0FBFF1BC0FAFF110000016E6F5E
:101A0800000E000100016F6F00016E51000100011E
:101A18006B51800AF36E800EF35C000ED8B46A5DD9
:101A2800D8B00AD0000100016A6D00016B1FD8B060
:101A38006B2B000100016F2B000100016AC060F0F0
:101A4800000100016BC061F000010001626B000140
:101A5800636B00016E6F960E00010001646F000158
:101A68006E516FC065F02DEC0AF060C06AF061C07D
:101A78006BF062C06CF063C06DF01200E8CF70F0DC
:101A880000016E6F000E000100016F6F00016E51C2
:101A98000001000170AF0BD000010001706D000162
:101AA8006E6F010E000100016F6F00016E510001A1
:101AB8000001705100010001606F0001616B0001BD
:101AC800626B0001636B00016E6F960E00010001EE
:101AD800646F00016E516FC065F02DEC0AF060C0B4
:101AE8006AF061C06BF062C06CF063C06DF0120008
:101AF800E8CF65F0000100016507000100016007FB
:101B080000010001610700010001620700010001F6
:101B18006307000100016541E842C00B706E0001D7
:101B2800000160517012000100016139E842F80BB0
:101B3800716E00010001635171120001000164A57A
:101B4800718C0001000164B1718E62C072FF0001E6
:101B5800000164B3728C12007DC0D9FF7EC0DAFF29
:101B68000001DECF6AF00001DECF6BF00001DECFAE
:101B78006CF00001DECF6DF07FC06EF080C06FF0BA
:101B880081C070F082C071F057EC04F06AC083F035
:101B98006BC084F06CC085F06DC086F07DC0D9FF45
:101BA8007EC0DAFF83C0DEFF84C0DEFF85C0DEFFB3
:101BB80086C0DDFFD906D90612007DC0D9FF7EC0D8
:101BC800DAFF0001DECF6AF00001DECF6BF0000122
:101BD800DECF6CF00001DECF6DF07FC06EF080C00C
:101BE8006FF081C070F082C071F091EC02F06AC0B1
:101BF80083F06BC084F06CC085F06DC086F07DC04A
:101C0800D9FF7EC0DAFF83C0DEFF84C0DEFF85C057
:101C1800DEFF86C0DDFFD906D9061200E8CF70F0D6
:101C280000010001706708D00F010F0E00010001CC
:101C3800726F0F01180E07D00F010F0E000100017F
:101C4800726F0F011C0E00010001716F000100018D
:101C580072C061F00001000171C060F06BC062F0F9
:101C68006CC063F06DC064F06EC065F06FC066F064
:101C78006AEC07F0120001EE00F0C80EEE6AE80602
:101C8800FDE100EE8FF02D0EEE6AE806FDE100EEB4
:101C98002BF00B0EEE6AE806FDE1000EF86E00016F
:101CA80067EF00F0E8CF60F00001000160517F0BA2
:101CB800D56E000ED76E000ED66EF29400010001AC
:101CC80060AF02D0F28A01D0F29AD58E1200E8CF26
:101CD80060F060C06FFF6E50E00B000100016019FA
:101CE800D8B41200F8D7E8CF60F0210EE82EFED75E
:101CF80000F000010001602FF8D7120060C062F008
:101D080061C063F063C0D7FF62C0D6FF120016C07F
:101D180018F017C019F019C0D7FF18C0D6FF120065
:101D2800D6CF18F0D7CF19F018C016F019C017F091
:021D3800120097
:00000001FF
